{
  "contractName": "Voter",
  "abi": [
    {
      "inputs": [
        {
          "internalType": "uint256",
          "name": "",
          "type": "uint256"
        }
      ],
      "name": "options",
      "outputs": [
        {
          "internalType": "string",
          "name": "",
          "type": "string"
        }
      ],
      "stateMutability": "view",
      "type": "function",
      "constant": true
    },
    {
      "inputs": [
        {
          "internalType": "uint256",
          "name": "",
          "type": "uint256"
        }
      ],
      "name": "votes",
      "outputs": [
        {
          "internalType": "uint256",
          "name": "",
          "type": "uint256"
        }
      ],
      "stateMutability": "view",
      "type": "function",
      "constant": true
    },
    {
      "inputs": [
        {
          "internalType": "string",
          "name": "option",
          "type": "string"
        }
      ],
      "name": "addOption",
      "outputs": [],
      "stateMutability": "nonpayable",
      "type": "function"
    },
    {
      "inputs": [],
      "name": "startVoting",
      "outputs": [],
      "stateMutability": "nonpayable",
      "type": "function"
    },
    {
      "inputs": [
        {
          "internalType": "uint256",
          "name": "option",
          "type": "uint256"
        }
      ],
      "name": "vote",
      "outputs": [],
      "stateMutability": "nonpayable",
      "type": "function"
    },
    {
      "inputs": [
        {
          "internalType": "string",
          "name": "option",
          "type": "string"
        }
      ],
      "name": "vote",
      "outputs": [],
      "stateMutability": "nonpayable",
      "type": "function"
    },
    {
      "inputs": [],
      "name": "getVotes",
      "outputs": [
        {
          "internalType": "uint256[]",
          "name": "",
          "type": "uint256[]"
        }
      ],
      "stateMutability": "view",
      "type": "function",
      "constant": true
    }
  ],
  "bytecode": "0x608060405234801561001057600080fd5b50611026806100206000396000f3fe608060405234801561001057600080fd5b506004361061007d5760003560e01c8063409e22051161005b578063409e2205146100c65780635df81330146100f6578063edc550dc14610126578063fc36e15b146101425761007d565b80630121b93f146100825780630dc960151461009e5780631ec6b60a146100bc575b600080fd5b61009c60048036038101906100979190610874565b61015e565b005b6100a66102e6565b6040516100b3919061095f565b60405180910390f35b6100c461033e565b005b6100e060048036038101906100db9190610874565b610455565b6040516100ed9190610a1a565b60405180910390f35b610110600480360381019061010b9190610874565b610501565b60405161011d9190610a4b565b60405180910390f35b610140600480360381019061013b9190610b9b565b610525565b005b61015c60048036038101906101579190610b9b565b6105b4565b005b80600011158015610173575060038054905081105b6101b2576040517f08c379a00000000000000000000000000000000000000000000000000000000081526004016101a990610c30565b60405180910390fd5b600160003373ffffffffffffffffffffffffffffffffffffffff1673ffffffffffffffffffffffffffffffffffffffff16815260200190815260200160002060009054906101000a900460ff161561023f576040517f08c379a000000000000000000000000000000000000000000000000000000000815260040161023690610c9c565b60405180910390fd5b60018060003373ffffffffffffffffffffffffffffffffffffffff1673ffffffffffffffffffffffffffffffffffffffff16815260200190815260200160002060006101000a81548160ff0219169083151502179055506001600082815481106102ac576102ab610cbc565b5b90600052602060002001546102c19190610d1a565b600082815481106102d5576102d4610cbc565b5b906000526020600020018190555050565b6060600080548060200260200160405190810160405280929190818152602001828054801561033457602002820191906000526020600020905b815481526020019060010190808311610320575b5050505050905090565b600460009054906101000a900460ff161561038e576040517f08c379a000000000000000000000000000000000000000000000000000000000815260040161038590610dbc565b60405180910390fd5b60005b6003805490508110156104375760006040518060400160405280838152602001600115158152509050806002600384815481106103d1576103d0610cbc565b5b906000526020600020016040516103e89190610edc565b90815260200160405180910390206000820151816000015560208201518160010160006101000a81548160ff02191690831515021790555090505050808061042f90610ef3565b915050610391565b506001600460006101000a81548160ff021916908315150217905550565b6003818154811061046557600080fd5b90600052602060002001600091509050805461048090610e0b565b80601f01602080910402602001604051908101604052809291908181526020018280546104ac90610e0b565b80156104f95780601f106104ce576101008083540402835291602001916104f9565b820191906000526020600020905b8154815290600101906020018083116104dc57829003601f168201915b505050505081565b6000818154811061051157600080fd5b906000526020600020016000915090505481565b600460009054906101000a900460ff1615610575576040517f08c379a000000000000000000000000000000000000000000000000000000000815260040161056c90610dbc565b60405180910390fd5b6003819080600181540180825580915050600190039060005260206000200160009091909190915090805190602001906105b0929190610787565b5050565b600160003373ffffffffffffffffffffffffffffffffffffffff1673ffffffffffffffffffffffffffffffffffffffff16815260200190815260200160002060009054906101000a900460ff1615610641576040517f08c379a000000000000000000000000000000000000000000000000000000000815260040161063890610c9c565b60405180910390fd5b60006002826040516106539190610f6d565b9081526020016040518091039020604051806040016040529081600082015481526020016001820160009054906101000a900460ff161515151581525050905080602001516106d7576040517f08c379a00000000000000000000000000000000000000000000000000000000081526004016106ce90610fd0565b60405180910390fd5b60018060003373ffffffffffffffffffffffffffffffffffffffff1673ffffffffffffffffffffffffffffffffffffffff16815260200190815260200160002060006101000a81548160ff0219169083151502179055506001600082600001518154811061074857610747610cbc565b5b906000526020600020015461075d9190610d1a565b600082600001518154811061077557610774610cbc565b5b90600052602060002001819055505050565b82805461079390610e0b565b90600052602060002090601f0160209004810192826107b557600085556107fc565b82601f106107ce57805160ff19168380011785556107fc565b828001600101855582156107fc579182015b828111156107fb5782518255916020019190600101906107e0565b5b509050610809919061080d565b5090565b5b8082111561082657600081600090555060010161080e565b5090565b6000604051905090565b600080fd5b600080fd5b6000819050919050565b6108518161083e565b811461085c57600080fd5b50565b60008135905061086e81610848565b92915050565b60006020828403121561088a57610889610834565b5b60006108988482850161085f565b91505092915050565b600081519050919050565b600082825260208201905092915050565b6000819050602082019050919050565b6108d68161083e565b82525050565b60006108e883836108cd565b60208301905092915050565b6000602082019050919050565b600061090c826108a1565b61091681856108ac565b9350610921836108bd565b8060005b8381101561095257815161093988826108dc565b9750610944836108f4565b925050600181019050610925565b5085935050505092915050565b600060208201905081810360008301526109798184610901565b905092915050565b600081519050919050565b600082825260208201905092915050565b60005b838110156109bb5780820151818401526020810190506109a0565b838111156109ca576000848401525b50505050565b6000601f19601f8301169050919050565b60006109ec82610981565b6109f6818561098c565b9350610a0681856020860161099d565b610a0f816109d0565b840191505092915050565b60006020820190508181036000830152610a3481846109e1565b905092915050565b610a458161083e565b82525050565b6000602082019050610a606000830184610a3c565b92915050565b600080fd5b600080fd5b7f4e487b7100000000000000000000000000000000000000000000000000000000600052604160045260246000fd5b610aa8826109d0565b810181811067ffffffffffffffff82111715610ac757610ac6610a70565b5b80604052505050565b6000610ada61082a565b9050610ae68282610a9f565b919050565b600067ffffffffffffffff821115610b0657610b05610a70565b5b610b0f826109d0565b9050602081019050919050565b82818337600083830152505050565b6000610b3e610b3984610aeb565b610ad0565b905082815260208101848484011115610b5a57610b59610a6b565b5b610b65848285610b1c565b509392505050565b600082601f830112610b8257610b81610a66565b5b8135610b92848260208601610b2b565b91505092915050565b600060208284031215610bb157610bb0610834565b5b600082013567ffffffffffffffff811115610bcf57610bce610839565b5b610bdb84828501610b6d565b91505092915050565b7f496e76616c6964206f7074696f6e000000000000000000000000000000000000600082015250565b6000610c1a600e8361098c565b9150610c2582610be4565b602082019050919050565b60006020820190508181036000830152610c4981610c0d565b9050919050565b7f4163636f756e742068617320616c726561647920766f74656400000000000000600082015250565b6000610c8660198361098c565b9150610c9182610c50565b602082019050919050565b60006020820190508181036000830152610cb581610c79565b9050919050565b7f4e487b7100000000000000000000000000000000000000000000000000000000600052603260045260246000fd5b7f4e487b7100000000000000000000000000000000000000000000000000000000600052601160045260246000fd5b6000610d258261083e565b9150610d308361083e565b9250827fffffffffffffffffffffffffffffffffffffffffffffffffffffffffffffffff03821115610d6557610d64610ceb565b5b828201905092915050565b7f566f74696e672068617320616c72656164792073746172746564000000000000600082015250565b6000610da6601a8361098c565b9150610db182610d70565b602082019050919050565b60006020820190508181036000830152610dd581610d99565b9050919050565b7f4e487b7100000000000000000000000000000000000000000000000000000000600052602260045260246000fd5b60006002820490506001821680610e2357607f821691505b60208210811415610e3757610e36610ddc565b5b50919050565b600081905092915050565b60008190508160005260206000209050919050565b60008154610e6a81610e0b565b610e748186610e3d565b94506001821660008114610e8f5760018114610ea057610ed3565b60ff19831686528186019350610ed3565b610ea985610e48565b60005b83811015610ecb57815481890152600182019150602081019050610eac565b838801955050505b50505092915050565b6000610ee88284610e5d565b915081905092915050565b6000610efe8261083e565b91507fffffffffffffffffffffffffffffffffffffffffffffffffffffffffffffffff821415610f3157610f30610ceb565b5b600182019050919050565b6000610f4782610981565b610f518185610e3d565b9350610f6181856020860161099d565b80840191505092915050565b6000610f798284610f3c565b915081905092915050565b7f4f7074696f6e20646f6573206e6f742065786973740000000000000000000000600082015250565b6000610fba60158361098c565b9150610fc582610f84565b602082019050919050565b60006020820190508181036000830152610fe981610fad565b905091905056fea26469706673582212209356a3130b07674ad1f8cca0e69cc581ded0084b4d3ed187fcb4d56beb7e726264736f6c634300080a0033",
  "immutableReferences": {},
  "source": "// SPDX-License-Identifier: MIT\npragma solidity >=0.4.22 <0.9.0;\n\ncontract Voter {\n\n    struct OptionPos {\n        uint pos;\n        bool exists;\n    }\n\n    uint[] public votes;\n    mapping (address => bool) hasVoted;\n    mapping (string => OptionPos) posOfOption;\n    string[] public options;\n    bool votingStarted;\n\n    function addOption(string memory option) public {\n        require(!votingStarted, \"Voting has already started\");\n        options.push(option);\n    }\n\n    function startVoting() public {\n        require(!votingStarted, \"Voting has already started\");\n\n        for (uint i = 0; i < options.length; i++) {\n            OptionPos memory option = OptionPos(i, true);\n            posOfOption[options[i]] = option;\n        }\n        votingStarted = true;\n    }\n\n    function vote(uint option) public {\n        require(0 <= option && option < options.length, \"Invalid option\");\n        require(!hasVoted[msg.sender], \"Account has already voted\");\n\n        hasVoted[msg.sender] = true;\n        votes[option] = votes[option] + 1;\n    }\n\n    function vote(string memory option) public {\n        require(!hasVoted[msg.sender], \"Account has already voted\");\n        OptionPos memory optionPos = posOfOption[option];\n        require(optionPos.exists, \"Option does not exist\");\n\n        hasVoted[msg.sender] = true;\n        votes[optionPos.pos] = votes[optionPos.pos] + 1;\n    }\n\n    function getVotes() public view returns (uint[] memory) {\n        return votes;\n    }\n}",
  "sourcePath": "/Users/casperyonel/Documents/Projects/truffle-demo/contracts/Voter.sol",
  "compiler": {
    "name": "solc",
    "version": "0.8.10+commit.fc410830.Emscripten.clang"
  },
  "schemaVersion": "3.4.3",
  "updatedAt": "2021-12-06T21:51:54.611Z",
  "networkType": "ethereum",
  "devdoc": {
    "kind": "dev",
    "methods": {},
    "version": 1
  },
  "userdoc": {
    "kind": "user",
    "methods": {},
    "version": 1
  }
}